{
  "contractName": "ProxyVoting",
  "abi": [
    {
      "constant": true,
      "inputs": [
        {
          "name": "",
          "type": "uint256"
        }
      ],
      "name": "proposals",
      "outputs": [
        {
          "name": "id",
          "type": "uint256"
        },
        {
          "name": "directVotes",
          "type": "uint256"
        }
      ],
      "payable": false,
      "stateMutability": "view",
      "type": "function"
    },
    {
      "constant": true,
      "inputs": [],
      "name": "votingStart",
      "outputs": [
        {
          "name": "",
          "type": "uint256"
        }
      ],
      "payable": false,
      "stateMutability": "view",
      "type": "function"
    },
    {
      "constant": true,
      "inputs": [
        {
          "name": "",
          "type": "address"
        }
      ],
      "name": "curatorsIds",
      "outputs": [
        {
          "name": "",
          "type": "uint256"
        }
      ],
      "payable": false,
      "stateMutability": "view",
      "type": "function"
    },
    {
      "constant": true,
      "inputs": [],
      "name": "votingEnd",
      "outputs": [
        {
          "name": "",
          "type": "uint256"
        }
      ],
      "payable": false,
      "stateMutability": "view",
      "type": "function"
    },
    {
      "constant": true,
      "inputs": [
        {
          "name": "",
          "type": "uint256"
        }
      ],
      "name": "proposalsIds",
      "outputs": [
        {
          "name": "",
          "type": "uint256"
        }
      ],
      "payable": false,
      "stateMutability": "view",
      "type": "function"
    },
    {
      "constant": true,
      "inputs": [
        {
          "name": "",
          "type": "uint256"
        }
      ],
      "name": "curators",
      "outputs": [
        {
          "name": "votes",
          "type": "uint256"
        },
        {
          "name": "addr",
          "type": "address"
        }
      ],
      "payable": false,
      "stateMutability": "view",
      "type": "function"
    },
    {
      "constant": true,
      "inputs": [
        {
          "name": "",
          "type": "address"
        }
      ],
      "name": "voteSpent",
      "outputs": [
        {
          "name": "",
          "type": "bool"
        }
      ],
      "payable": false,
      "stateMutability": "view",
      "type": "function"
    },
    {
      "inputs": [
        {
          "name": "_proposalsIds",
          "type": "uint256[]"
        },
        {
          "name": "_votingStart",
          "type": "uint256"
        },
        {
          "name": "_votingEnd",
          "type": "uint256"
        }
      ],
      "payable": false,
      "stateMutability": "nonpayable",
      "type": "constructor"
    },
    {
      "anonymous": false,
      "inputs": [
        {
          "indexed": true,
          "name": "curatorId",
          "type": "uint256"
        }
      ],
      "name": "curatorRegistered",
      "type": "event"
    },
    {
      "anonymous": false,
      "inputs": [
        {
          "indexed": true,
          "name": "curatorId",
          "type": "uint256"
        },
        {
          "indexed": true,
          "name": "voter",
          "type": "address"
        }
      ],
      "name": "voteDelegated",
      "type": "event"
    },
    {
      "anonymous": false,
      "inputs": [
        {
          "indexed": true,
          "name": "proposalId",
          "type": "uint256"
        },
        {
          "indexed": true,
          "name": "voter",
          "type": "address"
        }
      ],
      "name": "directVote",
      "type": "event"
    },
    {
      "anonymous": false,
      "inputs": [
        {
          "indexed": true,
          "name": "proposalId",
          "type": "uint256"
        },
        {
          "indexed": true,
          "name": "curatorID",
          "type": "uint256"
        }
      ],
      "name": "curatorVote",
      "type": "event"
    },
    {
      "constant": true,
      "inputs": [],
      "name": "votingOpen",
      "outputs": [
        {
          "name": "",
          "type": "bool"
        }
      ],
      "payable": false,
      "stateMutability": "view",
      "type": "function"
    },
    {
      "constant": true,
      "inputs": [
        {
          "name": "_id",
          "type": "uint256"
        }
      ],
      "name": "isProposalId",
      "outputs": [
        {
          "name": "",
          "type": "bool"
        }
      ],
      "payable": false,
      "stateMutability": "view",
      "type": "function"
    },
    {
      "constant": true,
      "inputs": [
        {
          "name": "_id",
          "type": "uint256"
        }
      ],
      "name": "isCuratorId",
      "outputs": [
        {
          "name": "",
          "type": "bool"
        }
      ],
      "payable": false,
      "stateMutability": "view",
      "type": "function"
    },
    {
      "constant": true,
      "inputs": [
        {
          "name": "_addr",
          "type": "address"
        }
      ],
      "name": "isCuratorAddress",
      "outputs": [
        {
          "name": "",
          "type": "bool"
        }
      ],
      "payable": false,
      "stateMutability": "view",
      "type": "function"
    },
    {
      "constant": false,
      "inputs": [
        {
          "name": "_id",
          "type": "uint256"
        }
      ],
      "name": "registerAsCurator",
      "outputs": [],
      "payable": false,
      "stateMutability": "nonpayable",
      "type": "function"
    },
    {
      "constant": false,
      "inputs": [
        {
          "name": "_curatorId",
          "type": "uint256"
        }
      ],
      "name": "delegateVote",
      "outputs": [],
      "payable": false,
      "stateMutability": "nonpayable",
      "type": "function"
    },
    {
      "constant": false,
      "inputs": [
        {
          "name": "_proposalId",
          "type": "uint256"
        }
      ],
      "name": "vote",
      "outputs": [],
      "payable": false,
      "stateMutability": "nonpayable",
      "type": "function"
    },
    {
      "constant": true,
      "inputs": [
        {
          "name": "_proposalId",
          "type": "uint256"
        }
      ],
      "name": "getProposalCurators",
      "outputs": [
        {
          "name": "",
          "type": "uint256[]"
        }
      ],
      "payable": false,
      "stateMutability": "view",
      "type": "function"
    },
    {
      "constant": true,
      "inputs": [],
      "name": "results",
      "outputs": [
        {
          "name": "_proposalsIds",
          "type": "uint256[]"
        },
        {
          "name": "_totalVotes",
          "type": "uint256[]"
        }
      ],
      "payable": false,
      "stateMutability": "view",
      "type": "function"
    },
    {
      "constant": true,
      "inputs": [
        {
          "name": "_proposalId",
          "type": "uint256"
        }
      ],
      "name": "voteCount",
      "outputs": [
        {
          "name": "_voteCount",
          "type": "uint256"
        }
      ],
      "payable": false,
      "stateMutability": "view",
      "type": "function"
    }
  ],
  "bytecode": "0x60806040523480156200001157600080fd5b5060405162001ba638038062001ba6833981018060405260608110156200003757600080fd5b8101908080516401000000008111156200005057600080fd5b828101905060208101848111156200006757600080fd5b81518560208202830111640100000000821117156200008557600080fd5b5050929190602001805190602001909291908051906020019092919050505042821015620000ff576040517f08c379a000000000000000000000000000000000000000000000000000000000815260040180806020018281038252602681526020018062001b546026913960400191505060405180910390fd5b81811162000159576040517f08c379a000000000000000000000000000000000000000000000000000000000815260040180806020018281038252602c81526020018062001b7a602c913960400191505060405180910390fd5b600283511015620001b6576040517f08c379a000000000000000000000000000000000000000000000000000000000815260040180806020018281038252602681526020018062001b2e6026913960400191505060405180910390fd5b60008090505b83518110156200031e576000848281518110620001d557fe5b6020026020010151141562000252576040517f08c379a000000000000000000000000000000000000000000000000000000000815260040180806020018281038252601d8152602001807f27302720697320616e20696e76616c69642070726f706f73616c20696400000081525060200191505060405180910390fd5b60405180606001604052808583815181106200026a57fe5b60200260200101518152602001600081526020016000604051908082528060200260200182016040528015620002af5781602001602082028038833980820191505090505b5081525060016000868481518110620002c457fe5b60200260200101518152602001908152602001600020600082015181600001556020820151816001015560408201518160020190805190602001906200030c9291906200034f565b509050508080600101915050620001bc565b50826000908051906020019062000337929190620003a1565b5081600581905550806006819055505050506200041b565b8280548282559060005260206000209081019282156200038e579160200282015b828111156200038d57825182559160200191906001019062000370565b5b5090506200039d9190620003f3565b5090565b828054828255906000526020600020908101928215620003e0579160200282015b82811115620003df578251825591602001919060010190620003c2565b5b509050620003ef9190620003f3565b5090565b6200041891905b8082111562000414576000816000905550600101620003fa565b5090565b90565b611703806200042b6000396000f3fe608060405234801561001057600080fd5b506004361061010b5760003560e01c8063a95824b4116100a2578063d8406ed911610071578063d8406ed914610438578063dce8ac52146104bb578063dff43434146104e9578063f7f87f211461055e578063ffdfb3e9146105a45761010b565b8063a95824b414610360578063b3929aaa14610382578063b637d7a8146103c4578063d4ef3ec2146103f25761010b565b80634fc8a20d116100de5780634fc8a20d146101fd57806377c060d01461023f57806385a386351461029b578063a48bdb7c146102b95761010b565b80630121b93f14610110578063013cf08b1461013e578063101158af146101875780632bb4b62f146101a5575b600080fd5b61013c6004803603602081101561012657600080fd5b8101908080359060200190929190505050610600565b005b61016a6004803603602081101561015457600080fd5b810190808035906020019092919050505061097a565b604051808381526020018281526020019250505060405180910390f35b61018f61099e565b6040518082815260200191505060405180910390f35b6101e7600480360360208110156101bb57600080fd5b81019080803573ffffffffffffffffffffffffffffffffffffffff1690602001909291905050506109a4565b6040518082815260200191505060405180910390f35b6102296004803603602081101561021357600080fd5b81019080803590602001909291905050506109bc565b6040518082815260200191505060405180910390f35b6102816004803603602081101561025557600080fd5b81019080803573ffffffffffffffffffffffffffffffffffffffff169060200190929190505050610b67565b604051808215151515815260200191505060405180910390f35b6102a3610bf2565b6040518082815260200191505060405180910390f35b6102c1610bf8565b604051808060200180602001838103835285818151815260200191508051906020019060200280838360005b838110156103085780820151818401526020810190506102ed565b50505050905001838103825284818151815260200191508051906020019060200280838360005b8381101561034a57808201518184015260208101905061032f565b5050505090500194505050505060405180910390f35b610368610d43565b604051808215151515815260200191505060405180910390f35b6103ae6004803603602081101561039857600080fd5b8101908080359060200190929190505050610d62565b6040518082815260200191505060405180910390f35b6103f0600480360360208110156103da57600080fd5b8101908080359060200190929190505050610d83565b005b61041e6004803603602081101561040857600080fd5b81019080803590602001909291905050506110b6565b604051808215151515815260200191505060405180910390f35b6104646004803603602081101561044e57600080fd5b8101908080359060200190929190505050611138565b6040518080602001828103825283818151815260200191508051906020019060200280838360005b838110156104a757808201518184015260208101905061048c565b505050509050019250505060405180910390f35b6104e7600480360360208110156104d157600080fd5b8101908080359060200190929190505050611221565b005b610515600480360360208110156104ff57600080fd5b81019080803590602001909291905050506115d1565b604051808381526020018273ffffffffffffffffffffffffffffffffffffffff1673ffffffffffffffffffffffffffffffffffffffff1681526020019250505060405180910390f35b61058a6004803603602081101561057457600080fd5b8101908080359060200190929190505050611615565b604051808215151515815260200191505060405180910390f35b6105e6600480360360208110156105ba57600080fd5b81019080803573ffffffffffffffffffffffffffffffffffffffff16906020019092919050505061164b565b604051808215151515815260200191505060405180910390f35b610608610d43565b61067a576040517f08c379a00000000000000000000000000000000000000000000000000000000081526004018080602001828103825260168152602001807f566f74696e6720706572696f64206e6f74206f70656e0000000000000000000081525060200191505060405180910390fd5b600460003373ffffffffffffffffffffffffffffffffffffffff1673ffffffffffffffffffffffffffffffffffffffff16815260200190815260200160002060009054906101000a900460ff161561073a576040517f08c379a000000000000000000000000000000000000000000000000000000000815260040180806020018281038252601c8152602001807f566f7465206861766520616c7265616479206265656e207370656e740000000081525060200191505060405180910390fd5b61074381611615565b6107b5576040517f08c379a00000000000000000000000000000000000000000000000000000000081526004018080602001828103825260138152602001807f496e76616c69642070726f706f73616c2069640000000000000000000000000081525060200191505060405180910390fd5b6001600460003373ffffffffffffffffffffffffffffffffffffffff1673ffffffffffffffffffffffffffffffffffffffff16815260200190815260200160002060006101000a81548160ff02191690831515021790555061081633610b67565b1561090c5760016000828152602001908152602001600020600201600360003373ffffffffffffffffffffffffffffffffffffffff1673ffffffffffffffffffffffffffffffffffffffff168152602001908152602001600020549080600181540180825580915050906001820390600052602060002001600090919290919091505550600360003373ffffffffffffffffffffffffffffffffffffffff1673ffffffffffffffffffffffffffffffffffffffff16815260200190815260200160002054817fe57f5cfb789e6411b7088e5e19f972deec94892abd260ed9711bbf5181f6056960405160405180910390a3610977565b60016000828152602001908152602001600020600101600081548092919060010191905055503373ffffffffffffffffffffffffffffffffffffffff16817facf78eafd8e246514da6cf6b0a68d6b0055a14dbc8fd5b45396572ee0b28ca6860405160405180910390a35b50565b60016020528060005260406000206000915090508060000154908060010154905082565b60055481565b60036020528060005260406000206000915090505481565b6000600654421015610a19576040517f08c379a000000000000000000000000000000000000000000000000000000000815260040180806020018281038252602481526020018061168f6024913960400191505060405180910390fd5b610a2282611615565b610a94576040517f08c379a00000000000000000000000000000000000000000000000000000000081526004018080602001828103825260138152602001807f496e76616c69642070726f706f73616c2069640000000000000000000000000081525060200191505060405180910390fd5b60016000838152602001908152602001600020600101549050606060016000848152602001908152602001600020600201805480602002602001604051908101604052809291908181526020018280548015610b0f57602002820191906000526020600020905b815481526020019060010190808311610afb575b5050505050905060008090505b8151811015610b605760026000838381518110610b3557fe5b6020026020010151815260200190815260200160002060000154830192508080600101915050610b1c565b5050919050565b60008073ffffffffffffffffffffffffffffffffffffffff168273ffffffffffffffffffffffffffffffffffffffff161415610ba65760009050610bed565b6000600360008473ffffffffffffffffffffffffffffffffffffffff1673ffffffffffffffffffffffffffffffffffffffff16815260200190815260200160002054141590505b919050565b60065481565b606080600654421015610c56576040517f08c379a000000000000000000000000000000000000000000000000000000000815260040180806020018281038252602481526020018061168f6024913960400191505060405180910390fd5b6000805480602002602001604051908101604052809291908181526020018280548015610ca257602002820191906000526020600020905b815481526020019060010190808311610c8e575b505050505091506060600080549050604051908082528060200260200182016040528015610cdf5781602001602082028038833980820191505090505b50905060008090505b600080549050811015610d3a57610d1560008281548110610d0557fe5b90600052602060002001546109bc565b828281518110610d2157fe5b6020026020010181815250508080600101915050610ce8565b50809150509091565b6000804290506005548110158015610d5c575060065481105b91505090565b60008181548110610d6f57fe5b906000526020600020016000915090505481565b610d8b610d43565b610dfd576040517f08c379a00000000000000000000000000000000000000000000000000000000081526004018080602001828103825260168152602001807f566f74696e6720706572696f64206e6f74206f70656e0000000000000000000081525060200191505060405180910390fd5b600460003373ffffffffffffffffffffffffffffffffffffffff1673ffffffffffffffffffffffffffffffffffffffff16815260200190815260200160002060009054906101000a900460ff1615610ebd576040517f08c379a000000000000000000000000000000000000000000000000000000000815260040180806020018281038252601c8152602001807f566f7465206861766520616c7265616479206265656e207370656e740000000081525060200191505060405180910390fd5b610ec633610b67565b15610f1c576040517f08c379a000000000000000000000000000000000000000000000000000000000815260040180806020018281038252602381526020018061166c6023913960400191505060405180910390fd5b6000811415610f93576040517f08c379a00000000000000000000000000000000000000000000000000000000081526004018080602001828103825260148152602001807f27302720697320616e20696e76616c696420696400000000000000000000000081525060200191505060405180910390fd5b610f9c816110b6565b610ff1576040517f08c379a00000000000000000000000000000000000000000000000000000000081526004018080602001828103825260258152602001806116b36025913960400191505060405180910390fd5b6001600460003373ffffffffffffffffffffffffffffffffffffffff1673ffffffffffffffffffffffffffffffffffffffff16815260200190815260200160002060006101000a81548160ff02191690831515021790555060026000828152602001908152602001600020600001600081548092919060010191905055503373ffffffffffffffffffffffffffffffffffffffff16817f6dc70b21b54e6a81a77c4623bebaf2f6c78898ef51ab587b7b07f3ff076a36ff60405160405180910390a350565b6000808214156110c95760009050611133565b600073ffffffffffffffffffffffffffffffffffffffff166002600084815260200190815260200160002060010160009054906101000a900473ffffffffffffffffffffffffffffffffffffffff1673ffffffffffffffffffffffffffffffffffffffff16141590505b919050565b606061114382611615565b6111b5576040517f08c379a00000000000000000000000000000000000000000000000000000000081526004018080602001828103825260138152602001807f496e76616c69642070726f706f73616c2069640000000000000000000000000081525060200191505060405180910390fd5b6001600083815260200190815260200160002060020180548060200260200160405190810160405280929190818152602001828054801561121557602002820191906000526020600020905b815481526020019060010190808311611201575b50505050509050919050565b611229610d43565b61129b576040517f08c379a00000000000000000000000000000000000000000000000000000000081526004018080602001828103825260168152602001807f566f74696e6720706572696f64206e6f74206f70656e0000000000000000000081525060200191505060405180910390fd5b600460003373ffffffffffffffffffffffffffffffffffffffff1673ffffffffffffffffffffffffffffffffffffffff16815260200190815260200160002060009054906101000a900460ff161561135b576040517f08c379a000000000000000000000000000000000000000000000000000000000815260040180806020018281038252601c8152602001807f566f7465206861766520616c7265616479206265656e207370656e740000000081525060200191505060405180910390fd5b60008114156113d2576040517f08c379a00000000000000000000000000000000000000000000000000000000081526004018080602001828103825260148152602001807f27302720697320616e20696e76616c696420696400000000000000000000000081525060200191505060405180910390fd5b6113db33610b67565b1561144e576040517f08c379a000000000000000000000000000000000000000000000000000000000815260040180806020018281038252601d8152602001807f43616e2774207265676973746572206d6f7265207468616e206f6e636500000081525060200191505060405180910390fd5b611457816110b6565b156114ca576040517f08c379a00000000000000000000000000000000000000000000000000000000081526004018080602001828103825260158152602001807f496420616c7265616479206265696e672075736564000000000000000000000081525060200191505060405180910390fd5b6040518060400160405280600181526020013373ffffffffffffffffffffffffffffffffffffffff16815250600260008381526020019081526020016000206000820151816000015560208201518160010160006101000a81548173ffffffffffffffffffffffffffffffffffffffff021916908373ffffffffffffffffffffffffffffffffffffffff16021790555090505080600360003373ffffffffffffffffffffffffffffffffffffffff1673ffffffffffffffffffffffffffffffffffffffff16815260200190815260200160002081905550807fc3902c987f0bf37a2f8fd1de870cb8545eb310d12b26dc896c53c92dc6188d3060405160405180910390a250565b60026020528060005260406000206000915090508060000154908060010160009054906101000a900473ffffffffffffffffffffffffffffffffffffffff16905082565b6000808214156116285760009050611646565b60006001600084815260200190815260200160002060000154141590505b919050565b60046020528060005260406000206000915054906101000a900460ff168156fe43757261746f72732063616e27742064656c656761746520746865697220766f746573556e617661696c61626c6520756e74696c20766f74696e6720706572696f6420656e6473496420646f6573206e6f7420636f72726573706f6e6420746f20616e792063757261746f72a165627a7a723058207eab89d4fd890212f9690988821434fb437cb707e657760d8838fe6c1672b0ad002954686572652073686f756c64206265206174206c656173742074776f2070726f706f73616c735374617274696e672074696d652063616e2774206265206c657373207468616e20276e6f7727456e64696e672074696d652068617320746f20636f6d65206c6174746572207468616e207374617274696e67",
  "source": "pragma solidity 0.5.8;\r\n\r\ncontract ProxyVoting {\r\n\t// model a proposal\r\n\tstruct Proposal {\r\n\t\tuint256 id;\r\n\t\tuint256 directVotes;\r\n\t\tuint256[] curators;\r\n\t}\r\n\r\n\tstruct ProposalTotalVoteCount {\r\n\t\tuint256 id;\r\n\t\tuint256 votes;\r\n\t}\r\n\r\n\t// model a curator\r\n\tstruct Curator {\r\n\t\tuint256 votes;\r\n\t\taddress addr;\r\n\t}\r\n\r\n\t// number of proposals\r\n\tuint256[] public proposalsIds;\r\n\t// store proposals info\r\n\tmapping(uint256 => Proposal) public proposals;\r\n\t// store curators info\r\n\tmapping(uint256 => Curator) public curators;\r\n\t// store addresses of curators\r\n\tmapping(address => uint256) public curatorsIds;\r\n\t// store accounts that have voted or delegated\r\n\tmapping(address => bool) public voteSpent;\t\r\n\t// time for voting to start\r\n\tuint256 public votingStart;\r\n\t// time for voting to end\r\n\tuint256 public votingEnd;\r\n\r\n\tconstructor(\r\n\t\tuint256[] memory _proposalsIds,\r\n\t\tuint256 _votingStart,\r\n\t\tuint256 _votingEnd\r\n\t) public {\r\n\t\t// require that voting starting time is not before the deployment time\r\n\t\trequire(_votingStart >= now, \"Starting time can't be less than 'now'\");\r\n\r\n\t\t// require that ending time is greater than the starting time\r\n\t\trequire(_votingEnd > _votingStart, \"Ending time has to come latter than starting\");\r\n\r\n\t\t// require that there are at least two proposals\r\n\t\trequire(_proposalsIds.length >= 2, \"There should be at least two proposals\");\r\n\r\n\t\tfor(uint256 i = 0; i < _proposalsIds.length; i++) {\r\n\t\t\t// require that no id is set to zero\r\n\t\t\trequire(_proposalsIds[i] != 0, \"'0' is an invalid proposal id\");\r\n\t\t\tproposals[_proposalsIds[i]] = Proposal(_proposalsIds[i], 0, new uint256[](0));\r\n\t\t}\r\n\r\n\t\tproposalsIds = _proposalsIds;\r\n\t\tvotingStart = _votingStart;\r\n\t\tvotingEnd = _votingEnd;\r\n\t}\r\n\r\n\t// curator registered\r\n\tevent curatorRegistered(uint256 indexed curatorId);\r\n\r\n\t// vote delegated to curator\r\n\tevent voteDelegated(uint256 indexed curatorId, address indexed voter);\r\n\r\n\t// direct vote cast\r\n\tevent directVote(uint256 indexed proposalId, address indexed voter);\r\n\r\n\t// curator vote cast\r\n\tevent curatorVote(uint256 indexed proposalId, uint256 indexed curatorID);\r\n\r\n\t// require that voting is still open\r\n\tmodifier requireOpen {\r\n\t\trequire(votingOpen(), \"Voting period not open\");\r\n\t\t_;\r\n\t}\r\n\r\n\t// require that voting has ended\r\n\tmodifier requireEnded {\r\n\t\trequire(now >= votingEnd, \"Unavailable until voting period ends\");\r\n\t\t_;\r\n\t}\r\n\r\n\t// require that message sender hasn't already voted\r\n\tmodifier requireVoteNotSpent {\r\n\t\trequire(!voteSpent[msg.sender], \"Vote have already been spent\");\r\n\t\t_;\r\n\t}\r\n\r\n\t// returns whether or not the voting period is open\r\n\tfunction votingOpen() public view returns (bool) {\r\n\t\tuint256 time = now;\r\n\t\treturn time >= votingStart && time < votingEnd;\r\n\t}\r\n\r\n\t// gets an id and return whether of not it is an proposal id\r\n\tfunction isProposalId(uint256 _id) public view returns (bool) {\r\n\t\tif(_id == 0) return false;\r\n\t\treturn proposals[_id].id != 0;\r\n\t}\r\n\r\n\t// gets an id and return whether of not it is a curator id\r\n\tfunction isCuratorId(uint256 _id) public view returns (bool) {\r\n\t\tif(_id == 0) return false;\r\n\t\treturn curators[_id].addr != address(0);\r\n\t}\r\n\r\n\t// gets an address and return whether of not it is an curator address\r\n\tfunction isCuratorAddress(address _addr) public view returns (bool) {\r\n\t\tif(_addr == address(0)) return false;\r\n\t\treturn curatorsIds[_addr] != 0;\r\n\t}\r\n\r\n\t// register as a curator\r\n\tfunction registerAsCurator(uint256 _id) external requireOpen requireVoteNotSpent{\r\n\t\t// require a valid id\r\n\t\trequire(_id != 0, \"'0' is an invalid id\");\r\n\r\n\t\t// require that address is not already registered\r\n\t\trequire(!isCuratorAddress(msg.sender), \"Can't register more than once\");\r\n\r\n\t\t// require that id is not already used\r\n\t\trequire(!isCuratorId(_id), \"Id already being used\");\r\n\r\n\t\tcurators[_id] = Curator(1, msg.sender);\r\n\t\tcuratorsIds[msg.sender] = _id;\r\n\r\n\t\t// trigger candidate registration event\r\n\t\temit curatorRegistered(_id);\r\n\t}\r\n\r\n\t// delegate the vote to an registered curator\r\n\tfunction delegateVote(uint256 _curatorId) external requireOpen requireVoteNotSpent{\r\n\t\t// require that message sender is not a curator himself\r\n\t\trequire(!isCuratorAddress(msg.sender), \"Curators can't delegate their votes\");\r\n\r\n\t\t// require that id is not '0'\r\n\t\trequire(_curatorId != 0, \"'0' is an invalid id\");\r\n\r\n\t\t// require a valid curator ID\r\n\t\trequire(isCuratorId(_curatorId), \"Id does not correspond to any curator\");\r\n\r\n\t\t// recording the expenditure of the vote\r\n\t\tvoteSpent[msg.sender] = true;\t\t\r\n\r\n\t\t// recording the vote\r\n\t\tcurators[_curatorId].votes++;\r\n\r\n\t\t// trigger vote delegation event\r\n\t\temit voteDelegated(_curatorId, msg.sender);\t\r\n\t}\r\n\r\n\t// voting function for both curators and independent voters\r\n\tfunction vote(uint256 _proposalId) external requireOpen requireVoteNotSpent{\r\n\t\t// require a valid proposal ID\r\n\t\trequire(isProposalId(_proposalId), \"Invalid proposal id\");\r\n\r\n\t\t// recording the expenditure of the vote\r\n\t\tvoteSpent[msg.sender] = true;\t\t\r\n\r\n\t\tif(isCuratorAddress(msg.sender)) {\r\n\t\t\tproposals[_proposalId].curators.push(curatorsIds[msg.sender]);\r\n\t\t\temit curatorVote(_proposalId, curatorsIds[msg.sender]);\r\n\t\t} else {\r\n\t\t\tproposals[_proposalId].directVotes++;\r\n\t\t\t// trigger voted event\r\n\t\t\temit directVote(_proposalId, msg.sender);\r\n\t\t}\r\n\t}\r\n\r\n\t// gets a proposal id and returns the list of curators that have voted on it\r\n\tfunction getProposalCurators(uint256 _proposalId) external view returns(\r\n\t\tuint256[] memory\r\n\t) {\r\n\t\trequire(isProposalId(_proposalId), \"Invalid proposal id\");\r\n\t\treturn proposals[_proposalId].curators;\r\n\t}\t\r\n\r\n\t//  Returns the list of proposals and the list of total votes\r\n\t//  The element i of the list of votes correspond to the proposal i\r\n\t// of the proposals list\r\n\tfunction results() external view requireEnded returns (\r\n\t\tuint256[] memory _proposalsIds,\r\n\t\tuint256[] memory _totalVotes\r\n\t) {\r\n\t\t_proposalsIds = proposalsIds;\r\n\t\tuint256[] memory _total = new uint256[](proposalsIds.length);\r\n\t\tfor(uint256 i = 0; i < proposalsIds.length; i++) {\r\n\t\t\t_total[i] = voteCount(proposalsIds[i]);\r\n\t\t}\r\n\t\t_totalVotes = _total;\r\n\t}\r\n\r\n\t// \tReceives an id and returns the final vote count of the correspondent\r\n\t// proposal\r\n\tfunction voteCount(uint256 _proposalId)\r\n\t\tpublic view requireEnded returns (uint256 _voteCount) {\r\n\t\t// require that id is valid\r\n\t\trequire(isProposalId(_proposalId), \"Invalid proposal id\");\r\n\r\n\t\t_voteCount = proposals[_proposalId].directVotes;\r\n\r\n\t\tuint256[] memory _curators = proposals[_proposalId].curators;\r\n\t\tfor(uint256 j = 0; j < _curators.length; j++) {\r\n\t\t\t_voteCount += curators[_curators[j]].votes;\r\n\t\t}\r\n\t}\r\n}",
  "sourcePath": "C:/Users/Tiago N/Dropbox/programas/ethereum/election-proxy/contracts/ProxyVoting.sol",
  "compiler": {
    "name": "solc",
    "version": "0.5.8+commit.23d335f2.Emscripten.clang"
  },
  "schemaVersion": "3.0.11",
  "updatedAt": "2020-04-17T22:06:24.057Z",
  "devdoc": {
    "methods": {}
  },
  "userdoc": {
    "methods": {}
  }
}