{
  "contractName": "TestContract",
  "abi": [
    {
      "constant": true,
      "inputs": [
        {
          "name": "",
          "type": "uint256"
        }
      ],
      "name": "proposals",
      "outputs": [
        {
          "name": "id",
          "type": "uint256"
        },
        {
          "name": "directVotes",
          "type": "uint256"
        }
      ],
      "payable": false,
      "stateMutability": "view",
      "type": "function"
    },
    {
      "constant": true,
      "inputs": [],
      "name": "votingStart",
      "outputs": [
        {
          "name": "",
          "type": "uint256"
        }
      ],
      "payable": false,
      "stateMutability": "view",
      "type": "function"
    },
    {
      "constant": true,
      "inputs": [
        {
          "name": "",
          "type": "address"
        }
      ],
      "name": "curatorsIds",
      "outputs": [
        {
          "name": "",
          "type": "uint256"
        }
      ],
      "payable": false,
      "stateMutability": "view",
      "type": "function"
    },
    {
      "constant": true,
      "inputs": [],
      "name": "votingEnd",
      "outputs": [
        {
          "name": "",
          "type": "uint256"
        }
      ],
      "payable": false,
      "stateMutability": "view",
      "type": "function"
    },
    {
      "constant": true,
      "inputs": [
        {
          "name": "",
          "type": "uint256"
        }
      ],
      "name": "proposalsIds",
      "outputs": [
        {
          "name": "",
          "type": "uint256"
        }
      ],
      "payable": false,
      "stateMutability": "view",
      "type": "function"
    },
    {
      "constant": true,
      "inputs": [],
      "name": "OPEN",
      "outputs": [
        {
          "name": "",
          "type": "bool"
        }
      ],
      "payable": false,
      "stateMutability": "view",
      "type": "function"
    },
    {
      "constant": true,
      "inputs": [
        {
          "name": "",
          "type": "uint256"
        }
      ],
      "name": "curators",
      "outputs": [
        {
          "name": "votes",
          "type": "uint256"
        },
        {
          "name": "addr",
          "type": "address"
        }
      ],
      "payable": false,
      "stateMutability": "view",
      "type": "function"
    },
    {
      "constant": true,
      "inputs": [
        {
          "name": "",
          "type": "address"
        }
      ],
      "name": "voteSpent",
      "outputs": [
        {
          "name": "",
          "type": "bool"
        }
      ],
      "payable": false,
      "stateMutability": "view",
      "type": "function"
    },
    {
      "inputs": [
        {
          "name": "_proposalsIds",
          "type": "uint256[]"
        },
        {
          "name": "_votingStart",
          "type": "uint256"
        },
        {
          "name": "_votingEnd",
          "type": "uint256"
        }
      ],
      "payable": false,
      "stateMutability": "nonpayable",
      "type": "constructor"
    },
    {
      "anonymous": false,
      "inputs": [
        {
          "indexed": true,
          "name": "curatorId",
          "type": "uint256"
        }
      ],
      "name": "curatorRegistered",
      "type": "event"
    },
    {
      "anonymous": false,
      "inputs": [
        {
          "indexed": true,
          "name": "curatorId",
          "type": "uint256"
        },
        {
          "indexed": true,
          "name": "voter",
          "type": "address"
        }
      ],
      "name": "voteDelegated",
      "type": "event"
    },
    {
      "anonymous": false,
      "inputs": [
        {
          "indexed": true,
          "name": "proposalId",
          "type": "uint256"
        },
        {
          "indexed": true,
          "name": "voter",
          "type": "address"
        }
      ],
      "name": "directVote",
      "type": "event"
    },
    {
      "anonymous": false,
      "inputs": [
        {
          "indexed": true,
          "name": "proposalId",
          "type": "uint256"
        },
        {
          "indexed": true,
          "name": "curatorID",
          "type": "uint256"
        }
      ],
      "name": "curatorVote",
      "type": "event"
    },
    {
      "constant": true,
      "inputs": [],
      "name": "votingOpen",
      "outputs": [
        {
          "name": "",
          "type": "bool"
        }
      ],
      "payable": false,
      "stateMutability": "view",
      "type": "function"
    },
    {
      "constant": false,
      "inputs": [],
      "name": "votingOn",
      "outputs": [],
      "payable": false,
      "stateMutability": "nonpayable",
      "type": "function"
    },
    {
      "constant": false,
      "inputs": [],
      "name": "votingOff",
      "outputs": [],
      "payable": false,
      "stateMutability": "nonpayable",
      "type": "function"
    },
    {
      "constant": true,
      "inputs": [
        {
          "name": "_id",
          "type": "uint256"
        }
      ],
      "name": "isProposalId",
      "outputs": [
        {
          "name": "",
          "type": "bool"
        }
      ],
      "payable": false,
      "stateMutability": "view",
      "type": "function"
    },
    {
      "constant": true,
      "inputs": [
        {
          "name": "_id",
          "type": "uint256"
        }
      ],
      "name": "isCuratorId",
      "outputs": [
        {
          "name": "",
          "type": "bool"
        }
      ],
      "payable": false,
      "stateMutability": "view",
      "type": "function"
    },
    {
      "constant": true,
      "inputs": [
        {
          "name": "_addr",
          "type": "address"
        }
      ],
      "name": "isCuratorAddress",
      "outputs": [
        {
          "name": "",
          "type": "bool"
        }
      ],
      "payable": false,
      "stateMutability": "view",
      "type": "function"
    },
    {
      "constant": false,
      "inputs": [
        {
          "name": "_id",
          "type": "uint256"
        }
      ],
      "name": "registerAsCurator",
      "outputs": [],
      "payable": false,
      "stateMutability": "nonpayable",
      "type": "function"
    },
    {
      "constant": false,
      "inputs": [
        {
          "name": "_curatorId",
          "type": "uint256"
        }
      ],
      "name": "delegateVote",
      "outputs": [],
      "payable": false,
      "stateMutability": "nonpayable",
      "type": "function"
    },
    {
      "constant": false,
      "inputs": [
        {
          "name": "_proposalId",
          "type": "uint256"
        }
      ],
      "name": "vote",
      "outputs": [],
      "payable": false,
      "stateMutability": "nonpayable",
      "type": "function"
    },
    {
      "constant": true,
      "inputs": [
        {
          "name": "_proposalId",
          "type": "uint256"
        }
      ],
      "name": "getProposalCurators",
      "outputs": [
        {
          "name": "",
          "type": "uint256[]"
        }
      ],
      "payable": false,
      "stateMutability": "view",
      "type": "function"
    },
    {
      "constant": true,
      "inputs": [],
      "name": "results",
      "outputs": [
        {
          "name": "_proposalsIds",
          "type": "uint256[]"
        },
        {
          "name": "_totalVotes",
          "type": "uint256[]"
        }
      ],
      "payable": false,
      "stateMutability": "view",
      "type": "function"
    },
    {
      "constant": true,
      "inputs": [
        {
          "name": "_proposalId",
          "type": "uint256"
        }
      ],
      "name": "voteCount",
      "outputs": [
        {
          "name": "_voteCount",
          "type": "uint256"
        }
      ],
      "payable": false,
      "stateMutability": "view",
      "type": "function"
    }
  ],
  "bytecode": "0x60806040523480156200001157600080fd5b5060405162001c6238038062001c62833981018060405260608110156200003757600080fd5b8101908080516401000000008111156200005057600080fd5b828101905060208101848111156200006757600080fd5b81518560208202830111640100000000821117156200008557600080fd5b5050929190602001805190602001909291908051906020019092919050505042821015620000ff576040517f08c379a000000000000000000000000000000000000000000000000000000000815260040180806020018281038252602681526020018062001c106026913960400191505060405180910390fd5b81811162000159576040517f08c379a000000000000000000000000000000000000000000000000000000000815260040180806020018281038252602c81526020018062001c36602c913960400191505060405180910390fd5b600283511015620001b6576040517f08c379a000000000000000000000000000000000000000000000000000000000815260040180806020018281038252602681526020018062001bea6026913960400191505060405180910390fd5b60008090505b83518110156200031e576000848281518110620001d557fe5b6020026020010151141562000252576040517f08c379a000000000000000000000000000000000000000000000000000000000815260040180806020018281038252601d8152602001807f27302720697320616e20696e76616c69642070726f706f73616c20696400000081525060200191505060405180910390fd5b60405180606001604052808583815181106200026a57fe5b60200260200101518152602001600081526020016000604051908082528060200260200182016040528015620002af5781602001602082028038833980820191505090505b5081525060026000868481518110620002c457fe5b60200260200101518152602001908152602001600020600082015181600001556020820151816001015560408201518160020190805190602001906200030c9291906200034f565b509050508080600101915050620001bc565b50826001908051906020019062000337929190620003a1565b5081600681905550806007819055505050506200041b565b8280548282559060005260206000209081019282156200038e579160200282015b828111156200038d57825182559160200191906001019062000370565b5b5090506200039d9190620003f3565b5090565b828054828255906000526020600020908101928215620003e0579160200282015b82811115620003df578251825591602001919060010190620003c2565b5b509050620003ef9190620003f3565b5090565b6200041891905b8082111562000414576000816000905550600101620003fa565b5090565b90565b6117bf806200042b6000396000f3fe608060405234801561001057600080fd5b506004361061012c5760003560e01c8063a95824b4116100ad578063d8406ed911610071578063d8406ed91461048f578063dce8ac5214610512578063dff4343414610540578063f7f87f21146105b5578063ffdfb3e9146105fb5761012c565b8063a95824b414610395578063b3929aaa146103b7578063b637d7a8146103f9578063d1b9c43014610427578063d4ef3ec2146104495761012c565b80634fc8a20d116100f45780634fc8a20d1461022857806360a3ae061461026a57806377c060d01461027457806385a38635146102d0578063a48bdb7c146102ee5761012c565b80630121b93f14610131578063013cf08b1461015f578063101158af146101a857806320949bb4146101c65780632bb4b62f146101d0575b600080fd5b61015d6004803603602081101561014757600080fd5b8101908080359060200190929190505050610657565b005b61018b6004803603602081101561017557600080fd5b81019080803590602001909291905050506109d8565b604051808381526020018281526020019250505060405180910390f35b6101b06109fc565b6040518082815260200191505060405180910390f35b6101ce610a02565b005b610212600480360360208110156101e657600080fd5b81019080803573ffffffffffffffffffffffffffffffffffffffff169060200190929190505050610a1e565b6040518082815260200191505060405180910390f35b6102546004803603602081101561023e57600080fd5b8101908080359060200190929190505050610a36565b6040518082815260200191505060405180910390f35b610272610beb565b005b6102b66004803603602081101561028a57600080fd5b81019080803573ffffffffffffffffffffffffffffffffffffffff169060200190929190505050610c07565b604051808215151515815260200191505060405180910390f35b6102d8610c92565b6040518082815260200191505060405180910390f35b6102f6610c98565b604051808060200180602001838103835285818151815260200191508051906020019060200280838360005b8381101561033d578082015181840152602081019050610322565b50505050905001838103825284818151815260200191508051906020019060200280838360005b8381101561037f578082015181840152602081019050610364565b5050505090500194505050505060405180910390f35b61039d610ded565b604051808215151515815260200191505060405180910390f35b6103e3600480360360208110156103cd57600080fd5b8101908080359060200190929190505050610dfe565b6040518082815260200191505060405180910390f35b6104256004803603602081101561040f57600080fd5b8101908080359060200190929190505050610e1f565b005b61042f611159565b604051808215151515815260200191505060405180910390f35b6104756004803603602081101561045f57600080fd5b810190808035906020019092919050505061116b565b604051808215151515815260200191505060405180910390f35b6104bb600480360360208110156104a557600080fd5b81019080803590602001909291905050506111ed565b6040518080602001828103825283818151815260200191508051906020019060200280838360005b838110156104fe5780820151818401526020810190506104e3565b505050509050019250505060405180910390f35b61053e6004803603602081101561052857600080fd5b81019080803590602001909291905050506112d6565b005b61056c6004803603602081101561055657600080fd5b810190808035906020019092919050505061168d565b604051808381526020018273ffffffffffffffffffffffffffffffffffffffff1673ffffffffffffffffffffffffffffffffffffffff1681526020019250505060405180910390f35b6105e1600480360360208110156105cb57600080fd5b81019080803590602001909291905050506116d1565b604051808215151515815260200191505060405180910390f35b61063d6004803603602081101561061157600080fd5b81019080803573ffffffffffffffffffffffffffffffffffffffff169060200190929190505050611707565b604051808215151515815260200191505060405180910390f35b6000809054906101000a900460ff166106d8576040517f08c379a000000000000000000000000000000000000000000000000000000000815260040180806020018281038252601a8152602001807f566f74696e6720706572696f64206d757374206265206f70656e00000000000081525060200191505060405180910390fd5b600560003373ffffffffffffffffffffffffffffffffffffffff1673ffffffffffffffffffffffffffffffffffffffff16815260200190815260200160002060009054906101000a900460ff1615610798576040517f08c379a000000000000000000000000000000000000000000000000000000000815260040180806020018281038252601c8152602001807f566f7465206861766520616c7265616479206265656e207370656e740000000081525060200191505060405180910390fd5b6107a1816116d1565b610813576040517f08c379a00000000000000000000000000000000000000000000000000000000081526004018080602001828103825260138152602001807f496e76616c69642070726f706f73616c2069640000000000000000000000000081525060200191505060405180910390fd5b6001600560003373ffffffffffffffffffffffffffffffffffffffff1673ffffffffffffffffffffffffffffffffffffffff16815260200190815260200160002060006101000a81548160ff02191690831515021790555061087433610c07565b1561096a5760026000828152602001908152602001600020600201600460003373ffffffffffffffffffffffffffffffffffffffff1673ffffffffffffffffffffffffffffffffffffffff168152602001908152602001600020549080600181540180825580915050906001820390600052602060002001600090919290919091505550600460003373ffffffffffffffffffffffffffffffffffffffff1673ffffffffffffffffffffffffffffffffffffffff16815260200190815260200160002054817fe57f5cfb789e6411b7088e5e19f972deec94892abd260ed9711bbf5181f6056960405160405180910390a36109d5565b60026000828152602001908152602001600020600101600081548092919060010191905055503373ffffffffffffffffffffffffffffffffffffffff16817facf78eafd8e246514da6cf6b0a68d6b0055a14dbc8fd5b45396572ee0b28ca6860405160405180910390a35b50565b60026020528060005260406000206000915090508060000154908060010154905082565b60065481565b60016000806101000a81548160ff021916908315150217905550565b60046020528060005260406000206000915090505481565b60008060009054906101000a900460ff1615610a9d576040517f08c379a000000000000000000000000000000000000000000000000000000000815260040180806020018281038252602481526020018061174b6024913960400191505060405180910390fd5b610aa6826116d1565b610b18576040517f08c379a00000000000000000000000000000000000000000000000000000000081526004018080602001828103825260138152602001807f496e76616c69642070726f706f73616c2069640000000000000000000000000081525060200191505060405180910390fd5b60026000838152602001908152602001600020600101549050606060026000848152602001908152602001600020600201805480602002602001604051908101604052809291908181526020018280548015610b9357602002820191906000526020600020905b815481526020019060010190808311610b7f575b5050505050905060008090505b8151811015610be45760036000838381518110610bb957fe5b6020026020010151815260200190815260200160002060000154830192508080600101915050610ba0565b5050919050565b60008060006101000a81548160ff021916908315150217905550565b60008073ffffffffffffffffffffffffffffffffffffffff168273ffffffffffffffffffffffffffffffffffffffff161415610c465760009050610c8d565b6000600460008473ffffffffffffffffffffffffffffffffffffffff1673ffffffffffffffffffffffffffffffffffffffff16815260200190815260200160002054141590505b919050565b60075481565b6060806000809054906101000a900460ff1615610d00576040517f08c379a000000000000000000000000000000000000000000000000000000000815260040180806020018281038252602481526020018061174b6024913960400191505060405180910390fd5b6001805480602002602001604051908101604052809291908181526020018280548015610d4c57602002820191906000526020600020905b815481526020019060010190808311610d38575b505050505091506060600180549050604051908082528060200260200182016040528015610d895781602001602082028038833980820191505090505b50905060008090505b600180549050811015610de457610dbf60018281548110610daf57fe5b9060005260206000200154610a36565b828281518110610dcb57fe5b6020026020010181815250508080600101915050610d92565b50809150509091565b600080429050600754811091505090565b60018181548110610e0b57fe5b906000526020600020016000915090505481565b6000809054906101000a900460ff16610ea0576040517f08c379a000000000000000000000000000000000000000000000000000000000815260040180806020018281038252601a8152602001807f566f74696e6720706572696f64206d757374206265206f70656e00000000000081525060200191505060405180910390fd5b600560003373ffffffffffffffffffffffffffffffffffffffff1673ffffffffffffffffffffffffffffffffffffffff16815260200190815260200160002060009054906101000a900460ff1615610f60576040517f08c379a000000000000000000000000000000000000000000000000000000000815260040180806020018281038252601c8152602001807f566f7465206861766520616c7265616479206265656e207370656e740000000081525060200191505060405180910390fd5b610f6933610c07565b15610fbf576040517f08c379a00000000000000000000000000000000000000000000000000000000081526004018080602001828103825260238152602001806117286023913960400191505060405180910390fd5b6000811415611036576040517f08c379a00000000000000000000000000000000000000000000000000000000081526004018080602001828103825260148152602001807f27302720697320616e20696e76616c696420696400000000000000000000000081525060200191505060405180910390fd5b61103f8161116b565b611094576040517f08c379a000000000000000000000000000000000000000000000000000000000815260040180806020018281038252602581526020018061176f6025913960400191505060405180910390fd5b6001600560003373ffffffffffffffffffffffffffffffffffffffff1673ffffffffffffffffffffffffffffffffffffffff16815260200190815260200160002060006101000a81548160ff02191690831515021790555060036000828152602001908152602001600020600001600081548092919060010191905055503373ffffffffffffffffffffffffffffffffffffffff16817f6dc70b21b54e6a81a77c4623bebaf2f6c78898ef51ab587b7b07f3ff076a36ff60405160405180910390a350565b6000809054906101000a900460ff1681565b60008082141561117e57600090506111e8565b600073ffffffffffffffffffffffffffffffffffffffff166003600084815260200190815260200160002060010160009054906101000a900473ffffffffffffffffffffffffffffffffffffffff1673ffffffffffffffffffffffffffffffffffffffff16141590505b919050565b60606111f8826116d1565b61126a576040517f08c379a00000000000000000000000000000000000000000000000000000000081526004018080602001828103825260138152602001807f496e76616c69642070726f706f73616c2069640000000000000000000000000081525060200191505060405180910390fd5b600260008381526020019081526020016000206002018054806020026020016040519081016040528092919081815260200182805480156112ca57602002820191906000526020600020905b8154815260200190600101908083116112b6575b50505050509050919050565b6000809054906101000a900460ff16611357576040517f08c379a000000000000000000000000000000000000000000000000000000000815260040180806020018281038252601a8152602001807f566f74696e6720706572696f64206d757374206265206f70656e00000000000081525060200191505060405180910390fd5b600560003373ffffffffffffffffffffffffffffffffffffffff1673ffffffffffffffffffffffffffffffffffffffff16815260200190815260200160002060009054906101000a900460ff1615611417576040517f08c379a000000000000000000000000000000000000000000000000000000000815260040180806020018281038252601c8152602001807f566f7465206861766520616c7265616479206265656e207370656e740000000081525060200191505060405180910390fd5b600081141561148e576040517f08c379a00000000000000000000000000000000000000000000000000000000081526004018080602001828103825260148152602001807f27302720697320616e20696e76616c696420696400000000000000000000000081525060200191505060405180910390fd5b61149733610c07565b1561150a576040517f08c379a000000000000000000000000000000000000000000000000000000000815260040180806020018281038252601d8152602001807f43616e2774207265676973746572206d6f7265207468616e206f6e636500000081525060200191505060405180910390fd5b6115138161116b565b15611586576040517f08c379a00000000000000000000000000000000000000000000000000000000081526004018080602001828103825260158152602001807f496420616c7265616479206265696e672075736564000000000000000000000081525060200191505060405180910390fd5b6040518060400160405280600181526020013373ffffffffffffffffffffffffffffffffffffffff16815250600360008381526020019081526020016000206000820151816000015560208201518160010160006101000a81548173ffffffffffffffffffffffffffffffffffffffff021916908373ffffffffffffffffffffffffffffffffffffffff16021790555090505080600460003373ffffffffffffffffffffffffffffffffffffffff1673ffffffffffffffffffffffffffffffffffffffff16815260200190815260200160002081905550807fc3902c987f0bf37a2f8fd1de870cb8545eb310d12b26dc896c53c92dc6188d3060405160405180910390a250565b60036020528060005260406000206000915090508060000154908060010160009054906101000a900473ffffffffffffffffffffffffffffffffffffffff16905082565b6000808214156116e45760009050611702565b60006002600084815260200190815260200160002060000154141590505b919050565b60056020528060005260406000206000915054906101000a900460ff168156fe43757261746f72732063616e27742064656c656761746520746865697220766f746573556e617661696c61626c6520756e74696c20766f74696e6720706572696f6420656e6473496420646f6573206e6f7420636f72726573706f6e6420746f20616e792063757261746f72a165627a7a723058204de3333ddb801408b002f8c29fa3b23c04d9231ac01e0e5d44451beba4e3e09a002954686572652073686f756c64206265206174206c656173742074776f2070726f706f73616c735374617274696e672074696d652063616e2774206265206c657373207468616e20276e6f7727456e64696e672074696d652068617320746f20636f6d65206c6174746572207468616e207374617274696e67",
  "source": "pragma solidity 0.5.8;\r\n\r\n// Modified contract for testing\r\n\r\npragma solidity 0.5.8;\r\n\r\ncontract TestContract {\r\n// MODIFIED PART\r\n\tmodifier requireEnded {\r\n\t\trequire(!OPEN, \"Unavailable until voting period ends\");\r\n\t\t_;\r\n\t}\r\n\r\n\tmodifier requireOpen {\r\n\t\trequire(OPEN, \"Voting period must be open\");\r\n\t\t_;\r\n\t}\r\n\r\n\tfunction votingOpen() public view returns (bool) {\r\n\t\tuint256 time = now;\r\n\t\treturn time < votingEnd;\r\n\t}\r\n\r\n\tfunction votingOn() public {\r\n\t\tOPEN = true;\r\n\t}\r\n\r\n\tfunction votingOff() public {\r\n\t\tOPEN = false;\r\n\t}\r\n\r\n\tbool public OPEN;\r\n// the rest is unchanged\r\n\r\n\t// model a proposal\r\n\tstruct Proposal {\r\n\t\tuint256 id;\r\n\t\tuint256 directVotes;\r\n\t\tuint256[] curators;\r\n\t}\r\n\r\n\tstruct ProposalTotalVoteCount {\r\n\t\tuint256 id;\r\n\t\tuint256 votes;\r\n\t}\r\n\r\n\t// model a curator\r\n\tstruct Curator {\r\n\t\tuint256 votes;\r\n\t\taddress addr;\r\n\t}\r\n\r\n\t// number of proposals\r\n\tuint256[] public proposalsIds;\r\n\t// store proposals info\r\n\tmapping(uint256 => Proposal) public proposals;\r\n\t// store curators info\r\n\tmapping(uint256 => Curator) public curators;\r\n\t// store addresses of curators\r\n\tmapping(address => uint256) public curatorsIds;\r\n\t// store accounts that have voted or delegated\r\n\tmapping(address => bool) public voteSpent;\t\r\n\t// time for voting to start\r\n\tuint256 public votingStart;\r\n\t// time for voting to end\r\n\tuint256 public votingEnd;\r\n\r\n\tconstructor(\r\n\t\tuint256[] memory _proposalsIds,\r\n\t\tuint256 _votingStart,\r\n\t\tuint256 _votingEnd\r\n\t) public {\r\n\t\t// require that voting starting time is not before the deployment time\r\n\t\trequire(_votingStart >= now, \"Starting time can't be less than 'now'\");\r\n\r\n\t\t// require that ending time is greater than the starting time\r\n\t\trequire(_votingEnd > _votingStart, \"Ending time has to come latter than starting\");\r\n\r\n\t\t// require that there are at least two proposals\r\n\t\trequire(_proposalsIds.length >= 2, \"There should be at least two proposals\");\r\n\r\n\t\tfor(uint256 i = 0; i < _proposalsIds.length; i++) {\r\n\t\t\t// require that no id is set to zero\r\n\t\t\trequire(_proposalsIds[i] != 0, \"'0' is an invalid proposal id\");\r\n\t\t\tproposals[_proposalsIds[i]] = Proposal(_proposalsIds[i], 0, new uint256[](0));\r\n\t\t}\r\n\r\n\t\tproposalsIds = _proposalsIds;\r\n\t\tvotingStart = _votingStart;\r\n\t\tvotingEnd = _votingEnd;\r\n\t}\r\n\r\n\t// curator registered\r\n\tevent curatorRegistered(uint256 indexed curatorId);\r\n\r\n\t// vote delegated to curator\r\n\tevent voteDelegated(uint256 indexed curatorId, address indexed voter);\r\n\r\n\t// direct vote cast\r\n\tevent directVote(uint256 indexed proposalId, address indexed voter);\r\n\r\n\t// curator vote cast\r\n\tevent curatorVote(uint256 indexed proposalId, uint256 indexed curatorID);\r\n\r\n\t// require that message sender hasn't already voted\r\n\tmodifier requireVoteNotSpent {\r\n\t\trequire(!voteSpent[msg.sender], \"Vote have already been spent\");\r\n\t\t_;\r\n\t}\r\n\r\n\t// gets an id and return whether of not it is an proposal id\r\n\tfunction isProposalId(uint256 _id) public view returns (bool) {\r\n\t\tif(_id == 0) return false;\r\n\t\treturn proposals[_id].id != 0;\r\n\t}\r\n\r\n\t// gets an id and return whether of not it is a curator id\r\n\tfunction isCuratorId(uint256 _id) public view returns (bool) {\r\n\t\tif(_id == 0) return false;\r\n\t\treturn curators[_id].addr != address(0);\r\n\t}\r\n\r\n\t// gets an address and return whether of not it is an curator address\r\n\tfunction isCuratorAddress(address _addr) public view returns (bool) {\r\n\t\tif(_addr == address(0)) return false;\r\n\t\treturn curatorsIds[_addr] != 0;\r\n\t}\r\n\r\n\t// register as a curator\r\n\tfunction registerAsCurator(uint256 _id) external requireOpen requireVoteNotSpent{\r\n\t\t// require a valid id\r\n\t\trequire(_id != 0, \"'0' is an invalid id\");\r\n\r\n\t\t// require that address is not already registered\r\n\t\trequire(!isCuratorAddress(msg.sender), \"Can't register more than once\");\r\n\r\n\t\t// require that id is not already used\r\n\t\trequire(!isCuratorId(_id), \"Id already being used\");\r\n\r\n\t\tcurators[_id] = Curator(1, msg.sender);\r\n\t\tcuratorsIds[msg.sender] = _id;\r\n\r\n\t\t// trigger candidate registration event\r\n\t\temit curatorRegistered(_id);\r\n\t}\r\n\r\n\t// delegate the vote to an registered curator\r\n\tfunction delegateVote(uint256 _curatorId) external requireOpen requireVoteNotSpent{\r\n\t\t// require that message sender is not a curator himself\r\n\t\trequire(!isCuratorAddress(msg.sender), \"Curators can't delegate their votes\");\r\n\r\n\t\t// require that id is not '0'\r\n\t\trequire(_curatorId != 0, \"'0' is an invalid id\");\r\n\r\n\t\t// require a valid curator ID\r\n\t\trequire(isCuratorId(_curatorId), \"Id does not correspond to any curator\");\r\n\r\n\t\t// recording the expenditure of the vote\r\n\t\tvoteSpent[msg.sender] = true;\t\t\r\n\r\n\t\t// recording the vote\r\n\t\tcurators[_curatorId].votes++;\r\n\r\n\t\t// trigger vote delegation event\r\n\t\temit voteDelegated(_curatorId, msg.sender);\t\r\n\t}\r\n\r\n\t// voting function for both curators and independent voters\r\n\tfunction vote(uint256 _proposalId) external requireOpen requireVoteNotSpent{\r\n\t\t// require a valid proposal ID\r\n\t\trequire(isProposalId(_proposalId), \"Invalid proposal id\");\r\n\r\n\t\t// recording the expenditure of the vote\r\n\t\tvoteSpent[msg.sender] = true;\t\t\r\n\r\n\t\tif(isCuratorAddress(msg.sender)) {\r\n\t\t\tproposals[_proposalId].curators.push(curatorsIds[msg.sender]);\r\n\t\t\temit curatorVote(_proposalId, curatorsIds[msg.sender]);\r\n\t\t} else {\r\n\t\t\tproposals[_proposalId].directVotes++;\r\n\t\t\t// trigger voted event\r\n\t\t\temit directVote(_proposalId, msg.sender);\r\n\t\t}\r\n\t}\r\n\r\n\t// gets a proposal id and returns the list of curators that have voted on it\r\n\tfunction getProposalCurators(uint256 _proposalId) external view returns(\r\n\t\tuint256[] memory\r\n\t) {\r\n\t\trequire(isProposalId(_proposalId), \"Invalid proposal id\");\r\n\t\treturn proposals[_proposalId].curators;\r\n\t}\t\r\n\r\n\t//  Returns the list of proposals and the list of total votes\r\n\t//  The element i of the list of votes correspond to the proposal i\r\n\t// of the proposals list\r\n\tfunction results() external view requireEnded returns (\r\n\t\tuint256[] memory _proposalsIds,\r\n\t\tuint256[] memory _totalVotes\r\n\t) {\r\n\t\t_proposalsIds = proposalsIds;\r\n\t\tuint256[] memory _total = new uint256[](proposalsIds.length);\r\n\t\tfor(uint256 i = 0; i < proposalsIds.length; i++) {\r\n\t\t\t_total[i] = voteCount(proposalsIds[i]);\r\n\t\t}\r\n\t\t_totalVotes = _total;\r\n\t}\r\n\r\n\t// \tReceives an id and returns the final vote count of the correspondent\r\n\t// proposal\r\n\tfunction voteCount(uint256 _proposalId)\r\n\t\tpublic view requireEnded returns (uint256 _voteCount) {\r\n\t\t// require that id is valid\r\n\t\trequire(isProposalId(_proposalId), \"Invalid proposal id\");\r\n\r\n\t\t_voteCount = proposals[_proposalId].directVotes;\r\n\r\n\t\tuint256[] memory _curators = proposals[_proposalId].curators;\r\n\t\tfor(uint256 j = 0; j < _curators.length; j++) {\r\n\t\t\t_voteCount += curators[_curators[j]].votes;\r\n\t\t}\r\n\t}\r\n}",
  "sourcePath": "C:/Users/Tiago N/Dropbox/programas/ethereum/election-proxy/contracts/TestContract.sol",
  "compiler": {
    "name": "solc",
    "version": "0.5.8+commit.23d335f2.Emscripten.clang"
  },
  "schemaVersion": "3.0.11",
  "updatedAt": "2020-04-17T22:06:24.075Z",
  "devdoc": {
    "methods": {}
  },
  "userdoc": {
    "methods": {}
  }
}